:020000040802F0
:10000000000003203DD20208FFB302080DB402082D
:1000100013B4020819B402081FB40208000000005B
:10002000000000000000000000000000F1D80408FB
:1000300025B4020800000000C1DB04081F9A040870
:100040008DD202088DD202088DD202088DD202080C
:100050008DD2020833B402088DD2020805B7020817
:100060008DD2020813B7020821B702088DD2020808
:1000700041B4020855B4020869B402088DD20208DE
:100080007DB4020891B402088DD202088DD2020814
:100090008DD202088DD202088DD202082FB7020835
:1000A0008DD20208A5B40208C5B402088DD2020898
:1000B000E5B40208F9B402080DB502088DD20208B1
:1000C0008DD2020821B5020835B5020849B50208EB
:1000D0008DD202088DD202085DB5020875B50208FE
:1000E0003FB702088DD202088DD202088DD20208D5
:1000F0008DB50208ADB502088DD202088DD2020876
:100100008DD20208CDB50208E1B502088DD20208F1
:10011000F5B502088DD202088DD202080DB602088C
:1001200021B6020835B6020849B602085DB60208D3
:1001300071B602088DD202088DD202088DD2020853
:100140008DD202088DD202088DD2020885B602082F
:1001500099B60208ADB602088DD202088DD2020807
:100160008DD202088DD202088DD202088DD20208EB
:100170008DD202088DD202088DD202080000000044
:100180008DD202088DD20208C1B60208D9B6020883
:10019000F1B602088DD202088DD202088DD2020873
:0C01A00000000000000000008DD20208EA
:1001B00010B5054C237833B9044B13B10448AFF3A1
:1001C00000800123237010BD700C0020000000008F
:1001D0008C4F070808B5034B1BB103490348AFF325
:1001E000008008BD00000000740C00208C4F070840
:1001F000F0B44C1E4F2C41D8DFE804F02828282802
:10020000404040403E3E283E3E3E3E3E3E3E3E3E1C
:100210003E3E3E402A2A2A2A2A2A2A2A283E3E3EB2
:100220003E3E403E2A292840282A2A3E2940403E78
:100230003E3E28282828283E28283E2840403E3E8A
:100240003E4040403E3E3E282A282A2AB2B1ABB169
:10025000D0E90545AC4211DA0669270106EB041521
:100260004FF0000C0134C5F804C04461F155284634
:10027000C5E90223F0BC7047002AE9D100252846D1
:10028000F0BC704710B4C3681C78522C0A460FD0DB
:100290004F2C03D008465DF8044B7047C16A033108
:1002A000C16220210133C3605DF8044B00239FE746
:1002B000C16A0231C1621F21F4E700BF002963D087
:1002C00038B505460C462378013B4F2B37D8DFE87D
:1002D00003F03131315036363B3B31313131313140
:1002E00031313131313131313136313131313131F9
:1002F00031313131282831313631313131373131F5
:10030000313131363B3131313131313131313131CE
:1003100031313636313737373736313131313131A6
:100320003131A3681B78052B04D1D5F8383101335E
:10033000C5F83831D5F81C31B3F5006F08DD38BD8C
:10034000A468002CBFD138BDE468002CBBD1FAE70B
:100350000133C5F81C31A1682846FFF7AFFFE168FB
:100360002846FFF7ABFFD5F81C31013BC5F81C311F
:1003700038BDD5F844310133C5F84431D5F81C31C6
:10038000B3F5006FDBDCE3E7704700BF7AB32DE91C
:10039000F0410A440D460446D0F80011571E013DB5
:1003A0004FF0000809E00B46BD4201F10101C4F81D
:1003B0000011E65484F8046117D0FF2915F8016F85
:1003C000F1D1D4E9423284F8FF8020469847D4F82E
:1003D00028310133C4F8283100230121BD42C4F87B
:1003E0000011E65484F80461E7D1BDE8F08170475C
:1003F0002DE9F041026815786E2D07462CD0A5F145
:100400003003092B33D84FF0000EDFF868C000200E
:100410006FF0004802E0B0EBD10F19DC01323A6016
:100420001478A4F1300300EB8000A8EB0301DBB2E9
:1004300005EB4006092BACFB01012546A6F1300077
:10044000E9D9BEF1000F01D0C6F13000BDE8F0815E
:100450004FF0FF30BDE8F081531C03605578A5F1E3
:100460003002092A03D81A464FF0010ECDE70020CA
:10047000ECE700BFCDCCCCCC38B5D0E90532934207
:100480000FDA026902EB03141901002565600133DC
:100490004225436155540C30FFF7AAFFA060204667
:1004A00038BD0024204638BD10B5C3681A785F2ACD
:1004B00004460DD06E2A0DD00C30FFF799FF0130A5
:1004C00008D4E3681A785F2A04D10133E36010BDD1
:1004D0000020FAE74FF0FF3010BD00BFC3681A7864
:1004E000542A19D1013370B5C3600446FFF7DCFF0D
:1004F000021E0FDBD4E905318B420BDA216901EBD7
:1005000003101D01002646600133052663614E5528
:10051000826070BD002070BD0020704770B5044639
:100520000C30FFF765FF051E3EDDE66863689B1B28
:100530009D4237DCA26873195207E36004D5725DEF
:10054000242A04BF0133E360092D12DCD4E905320B
:10055000934227DA206900EB031000220133426046
:100560006361FEB1C0E90265002343600370A062CD
:1005700070BD1B490822304650F0E6FA30B9337A94
:100580002E2B13D05F2B11D0242B0FD0D4E90532A2
:100590009A4207DD206900EB03100022013342601C
:1005A0006361DFE70020E2E7002070BD737A4E2B25
:1005B000ECD1E26AD4E905311632551B8B42E56273
:1005C000F0DA2269074D02EB0310591C1B0161612F
:1005D00000214160D1541523C0E90253C7E700BF91
:1005E00010190A081C190A0830B5C368856A044640
:1005F0001878422883B00A4610D10133E3602046C0
:100600000192FFF78BFF019A03464C212046FFF72A
:10061000EFFDE368197842290246EED01046A56244
:1006200003B030BD2DE9F843C3681A78532A30D19E
:100630005A1CC2605A78044692B39A1CC2605A7817
:100640005F2A42D0A2F13000C3B2092B24D8002186
:100650000DE0303B99421CD8E1680A78481C1AB179
:10066000E0600A785F2A39D0A2F130001946C0B2A2
:1006700001EBC1030928A2F1410502EB8303E8D98C
:10068000192D06D801EBC10302EB8303373B9942D6
:10069000E2D90020BDE8F883A2F14103192BD6D995
:1006A000A36803F00803002B14BF0125002500D127
:1006B000B1B9354B742103F1A80001E013F81C1FF8
:1006C000914214D08342F9D1E3E70023226A9A428F
:1006D000DFD9E26952F82300BDE8F8830133F5E77A
:1006E000E3681B78433B012B98BF0D46E1E75E6949
:1006F000002E42D0D4E905208242D3F818C041DA56
:1007000027694FEA021E07EB02114FF00009013280
:100710004FF01808C1F80490626107F80E80C1E933
:10072000026CA16235B3D3E90351E36A82420B4400
:10073000E36225DA236903EB021016010027476004
:100740000132182762619F55C0E90251E3681B78A6
:10075000422B9FD101462046FFF746FF002898D044
:10076000D4E90832934294DAE1695A1C41F8230033
:1007700022628FE7D3E90151D7E7D4E90520D1E719
:100780000020E3E70021CCE7EC59070838B5044620
:1007900029B9C3681A787AB15A1CC26019786829D5
:1007A00019D0762908D104F10C052846FFF720FE60
:1007B000E3681A785F2A01D0002038BD0133E36076
:1007C0002846FFF715FEE3681A785F2AF4D1013353
:1007D000E360012038BD04F10C00FFF709FEF2E7E9
:1007E000C3681A785F2A01D00120704710B55A1CDF
:1007F000C2605A785F2A044605D00C30FFF7F8FD36
:10080000C043C00F10BD023340F80C3FFFF7F0FDAE
:10081000002809DB092805DDE3681A785F2A03D17F
:100820000133E360012010BD002010BD28B909E0AC
:10083000002908DDC068013940B103782F2BF7D0BB
:10084000002070477047FBD180687047704700BF39
:100850000346D0F8100130B1096843680029D86810
:1008600000DBE3E770470122C3F81821704700BF9F
:10087000002943D038B505460C4623784C2B33D895
:10088000DFE803F030323232322730383832323259
:10089000323232323232323232323232303232323A
:1008A000323232323232323232323230323232322A
:1008B0003032323232323038323232323232323216
:1008C0003232323232303032323230303032323014
:1008D000300004F108012846FFF7BAFF10B1037891
:1008E0002F2B00D0002038BDA1682846FFF7C0FF9D
:1008F0000028F8D1E468002CBFD1F3E7002070474E
:10090000F0B514465268A5684B1C1344AB4283B043
:100910000E46074611D8E5686DB9D4E9000339469B
:100920001844324650F01EF9D4E9003233449D5445
:1009300061683144616003B0F0BDE268002AFAD119
:1009400055B16D00AB42FCD82068294650F07AF9C9
:1009500038B12060A560DEE7022B4FF00205F0D829
:10096000F2E7019020684FF0A5FE019B0122C4E947
:100970000033C4E90232DEE72DE9F04FC268157892
:1009800085B000238D420446039300F028820F4671
:10099000994603AE4FF00108D4F830A0C4F8308077
:1009A00013784C2B7FD0542B00F09C80732B4DD0B0
:1009B000662B24D15378702B00F09980204601F0EB
:1009C000DBFC0546002800F087800378322B00F01E
:1009D000B280342B00F060810AD8332B08D18368B1
:1009E000032B05D8DFE813F031015D01040004009A
:1009F000C4F830A00025284605B0BDE8F08FA3F16B
:100A00003001092935D8204601F08AFE0546002824
:100A100062D0E3681A78492A00F0A180C4F830A0B7
:100A20002A4600232E212046FFF7E2FB30600028F3
:100A300041D0E2681378BB4200F10C06ACD1039DB3
:100A400001322846E26005B0BDE8F08F5378722B82
:100A500000F0E580702BB1D10232E260204600F058
:100A60000BFA002302464B212046FFF7C1FB054647
:100A70001DE06F2B24D0692B7ED153786C2B9DD138
:100A80000232E26000255078002800F0968145216E
:100A90002046FFF771FF2A46034631212046FFF723
:100AA000A7FB054603E0204601F088FF0546C4F891
:100AB00030A0002DB4D10025284605B0BDE8F08F48
:100AC00053786E2B7FF47AAF0232E260204601F059
:100AD00027FE054600289CD12846C4F830A005B062
:100AE000BDE8F08F2046FFF7F9FC0546DFE7931CD1
:100AF000E3609378542B5FD02046FFF7D5FC6FF06E
:100B0000004398423FF474AF431C3FF471AF01308F
:100B1000D4E905329342BFF66BAF2269190102EBAB
:100B200003154FF0060C0133C5F80490636102F819
:100B300001C0A86072E78068E26A816803680239D0
:100B40000A44E2621A78732A25D0D0F80CB0BBF1BF
:100B5000030F3FF64DAFDFE80BF0783380AF013382
:100B6000E360204600F0A8FB2A4603460421204605
:100B7000FFF73EFB05469AE7742B7FF41FAF5378CF
:100B80006C2B7FF41BAF0232E260204600F0FCFFCA
:100B9000E268054677E759787429D6D19978002913
:100BA000D3D1204600F0F0FF03462A4637212046E5
:100BB000FFF71EFB05467AE70332E2600020A7E755
:100BC0001978702920D06D291ED04FF0000B732AA0
:100BD00012D15A78502A0FD19B786BB9204600F079
:100BE0006BFB0346BBF1000FDFD01A4639212046CC
:100BF000FFF7FEFA0346D8E7204600F03DF903462A
:100C0000BBF1000FF1D1D0E758788842DDD1E1681F
:100C100008785F28DBD10131E1601A78D5E702322C
:100C2000E260204600F0B0FF0546204601F078FD66
:100C3000E3681978492900F0C48003462A46012157
:100C40002046FFF7D5FA054631E72A46002336212C
:100C50002046FFF7CDFA054629E7AA6812685178C1
:100C6000632900F0CD801A78662A00F0D9802046EA
:100C7000019300F001F9019B83461A78632A72D12F
:100C800059786C296FD1997800296CD1452120467B
:100C9000FFF772FE024675E0E3681A785F2A00F0FB
:100CA000A780204600F0E8F82A4603463721204670
:100CB000FFF79EFA0546FAE6712A17D15A78752A87
:100CC00014D19A7892B9204600F0D6F8834620468F
:100CD00000F0D2F802462046019200F0CDF8019AC9
:100CE000034670BBC4F830A0054684E61A78662A2D
:100CF00000F09D806E2A7FF47BAE5B78772B02D06C
:100D0000612B7FF475AE5F212046FFF735FE8346E9
:100D1000204600F039FFE36819784529024600F0C3
:100D2000A680702900F0958069297FF461AE5B7818
:100D30006C2B7FF45DAE0190204600F09DF8019A87
:100D400003463C212046FFF753FA5A4603463B210F
:100D50002046FFF74DFA2A4603463A212046FFF780
:100D600047FA0546A3E6642A1AD15978742917D19F
:100D70009978A9B9204601F0D3FCE368197849298C
:100D8000024658D0134639215A462046FFF730FA1A
:100D90002A46034638212046FFF72AFA054686E60A
:100DA000702A05D15A78742A02D19B78002BE1D0A1
:100DB000204600F061F80246E4E7C4F830A005469A
:100DC00019E601330190E360204600F075FA019ABC
:100DD000034604212046FFF70BFA03462EE70132B3
:100DE000C2602E211A4605B0BDE8F04FFFF700BAE9
:100DF0000133E36045212046FFF7BEFD0346D4E6FC
:100E00001278A2F16301012903D9723A012A3FF64F
:100E10002AAF2046019300F0B7FE019B83462CE7E2
:100E20002046019301F0A8FA019B834625E720465E
:100E300001F0A2FA4AE701330190E360204600F096
:100E40003BFA019A034604212046FFF7D1F90246F6
:100E500098E7597869297FF4CBAD02330190E360BC
:100E600045212046FFF788FD019A034669E70133D3
:100E7000E360002365E700BFC26813784C2B00F0E5
:100E80008B80542B00F08A80F0B5732B83B004461E
:100E900052D0662B30D0A3F1300109290CD820465E
:100EA00001F03EFC0546002872D0E3681A78492A12
:100EB00076D0284603B0F0BD6F2B4BD0692B7DD187
:100EC00053786C2B00F09780204601F055FA0546C8
:100ED00000285DD00378322B42D0342B00F07F8184
:100EE00056D8332B54D18368032B51D8DFE813F045
:100EF000C700F300500050005378702BE4D1931CCE
:100F0000C3609378542B00F01181FFF7CDFAC343EF
:100F100033F000433CD00130D4E90532934237DA54
:100F2000226902EB0315190100266E6001330626C3
:100F300063615654A860BCE75378722B4AD0702B7B
:100F4000C2D10232C260FFF797FF002302464B2155
:100F500020462EE053786E2BB6D10232C2609EE757
:100F60008168E36A8A680E68023A1344E362337860
:100F7000732B4FD17278742A4CD1B278002A49D1A0
:100F8000204600F001FE2A4603463721204610E0A5
:100F90000025284603B0F0BD01F010BDFFF79EBA52
:100FA0000133E360204600F087F92A460346042116
:100FB000204603B0BDE8F040FFF71AB9742B83D187
:100FC00053786C2B80D10232E26000F0DDFDE268E4
:100FD000054613E00232C26000F0D6FD0546204609
:100FE00001F09EFBE368197849291AD003462A4686
:100FF00020460121DDE70232E26000255378002B14
:10100000C6D045212046FFF7B7FC2A4603463121CA
:101010002046CEE7CF68032FBAD8DFE807F03013B9
:10102000356101330190E360204600F045F9019AF3
:10103000034604212046FFF7DBF82A460346012138
:101040002046B6E73278702A79D06D2A77D000270B
:10105000732B6FD17378502B6CD1B378002B69D17F
:10106000204600F029F903462FB11A4639212046BF
:10107000FFF7BEF803462A462046372199E72A465D
:1010800020460023362194E7AB681B685A78632A10
:1010900000F0B9803378662B00F0C3802046FFF75C
:1010A000EBFE07463378632B7BD172786C2A78D1BC
:1010B000B278002A75D145212046FFF75DFC024633
:1010C000134639213A462046FFF792F82A4603464E
:1010D000382120466DE72046FFF7CEFE0346CAE7DB
:1010E000712B37D17378752B34D1B37893BB2046ED
:1010F000FFF7C2FE06462046FFF7BEFE0746204623
:10110000FFF7BAFE034600283FF442AF3A463C21BF
:101110002046FFF76DF8324603463B212046FFF795
:1011200067F82A4603463A21204642E70332C26066
:101130000020F1E62046FFF79FFE034694E7717812
:10114000914284D1E26811785F2981D10132E26055
:1011500033787CE73378662B6FD06E2B7FF418AF33
:101160007378772B02D0612B7FF412AF5F2120467A
:10117000FFF702FC0646204600F006FDE3681978FA
:101180004529074669D070295BD069297FF400AFF3
:101190005B786C2B7FF4FCAE2046FFF76DFE0346B8
:1011A000B4E7642B28D17278742A25D1B2781ABB9F
:1011B000204601F0B5FAE3681978492902467FF420
:1011C0007FAF01330190E360204600F075F8019A8B
:1011D000034604212046FFF70BF8024670E7E36858
:1011E0001A785F2A7FF477AF0133E3604521204608
:1011F000FFF7C2FB03463EE7702B17D02046FFF7F0
:101200003BFE02465CE71B78A3F16302012A03D987
:10121000723B012B3FF63EAF204600F0B5FC07467F
:1012200040E7204601F0A8F807463BE77378742BA7
:10123000E4D1B378002BBBD0E0E7204601F09CF866
:1012400058E75A78692A7FF4A3AE0233E360452158
:101250002046FFF791FB034658E70133E360002384
:1012600054E700BF38B5C26813784C2B1DD0044634
:1012700005D8493B012B13D8BDE838404EE0582B28
:101280000ED101320123056BC2600363FFF7F4FD49
:10129000E36825631A78452A0BD10133E36038BD32
:1012A0002046BDE8384000F06FBCBDE8384001F092
:1012B00085BB002038BD00BF70B5C368866A1A7848
:1012C000452A82B004461FD00023019301AD09E0F6
:1012D000FEF78EFF286000F10C0560B1E3681A7814
:1012E000452A0BD02046FFF7BDFF024600232F21E1
:1012F0002046002AECD1002002B070BD0198A66201
:101300000133E36002B070BD5A1C0023C2602F217C
:101310001A4602B0BDE87040FEF76ABFC1680A789D
:10132000493A012A02D80131C160C5E7002070475F
:101330002DE9F043C2681378472B83B0044601D0EF
:10134000542B34D1E16A01F11403E3621378542B76
:101350005DD0472B40F0A680531CE3605378002BF0
:1013600000F0A080931CE3605378562B00F2B68007
:10137000402B40F29780413B152B00F29380DFE831
:1013800013F01701910091009100910091009100DC
:1013900091009100910091009100910091009100C5
:1013A00091009100240191003001910041010E460D
:1013B00000F020FA0546002874D0002E77D0A368EC
:1013C000DB0774D42B784D2BA3F11C01A3F14F0242
:1013D00000F0D68000F2D280042940F2D180022BA6
:1013E00061D1EA6813784D2BA3F11C00A3F14F01E2
:1013F00003D000F2AF81042855D89268EA601378D0
:101400004D2BA3F11C00A3F14F01F2D1F5E7531CC2
:10141000E3605378002B45D0931CE3605378413B45
:10142000352B3FD8DFE813F033013E0016013E00B4
:101430003E000E013E0006018E0186013E003E0088
:101440003E003E003E003E003E003E007E01740134
:101450003E006A0162013E003E003E003E003E004A
:101460003E003E003E003E003E003E004B013E007E
:101470003E003E003E003B013E003E003E003E007E
:101480003E003E003E003E003E003E003E003E006C
:101490003E00F600D4E905039842C0F27281E36889
:1014A0000B44E3600025284603B0BDE8F083E36801
:1014B0001B78002BF7D0452BF5D029460B78042B51
:1014C00000F0738154D94D2BA3F14F0202D059D9AA
:1014D000012A5AD889680029F0D157E0722BE1D14E
:1014E00004F10C00FEF784FF0128DBDDE3681A78C5
:1014F000002AD7D05F1CE7601B785F2BD2D1002277
:10150000451E90464FF041093B78002BCAD0242B52
:1015100040F024817B78532B00F05E815F2B00F03C
:101520005981242BBED11946D4E90503984280F293
:1015300055812669070106EB00130130C3F80480CA
:10154000606106F80790E76899600237023DE7603E
:10155000002A00F0288140212046FEF749FE02467D
:1015600000289FD0002DCFDC204600233F2127E01C
:10157000022B0AD1C9680029A0D107E0012A92D81C
:10158000AD681FE71C3B042BA4D90021204601F0C5
:101590006DF8002886D036B92B78022B03D103785A
:1015A000292B08BF866003462A462046032107E010
:1015B00000212046FFF7BCFE0023024617212046EB
:1015C00003B0BDE8F043FEF713BE204600F012F969
:1015D00001902046FEF750FF019A0346162120464F
:1015E000EEE79378002120462BB1D31CE36093787B
:1015F0006E2B00F0F880FFF79BFE00230246492186
:101600002046DDE7204600F0F5F8002302461321CE
:101610002046D5E776212046FFF7B8F800283FF4AA
:1016200041AF00212046FFF783FE00230246102130
:101630002046C5E7204600F0DDF8002302461421CD
:101640002046BDE7204600F09FFA002302460E2107
:101650002046B5E7204600F097FA054604F10C0055
:10166000FEF7C6FE0028FFF61DAFE3681A785F2A72
:101670007FF418AF0133E360204600F085FAE36A97
:10168000591D0246E1622B4620460B2198E7204671
:10169000FFF7E8FD002302463021204690E768214D
:1016A0002046FFF773F800283FF4FCAE00212046E7
:1016B000FFF73EFE002302460F21204680E700216F
:1016C0002046FFF763F800283FF4ECAE00212046E7
:1016D000FFF75CF800283FF4E5AE00212046FFF755
:1016E00027FE002302461121204669E7204600F02C
:1016F00081F8002302461521204661E70F31E1629F
:10170000204600F041FA002302460921204657E70F
:101710000A31E162204600F037FA002302460A212E
:1017200020464DE7204600F02FFA002302460D2107
:10173000204645E7204600F027FA00230246122102
:1017400020463DE7204600F01FFA002302460C2108
:10175000204635E701293FF6A6AE4EE63E4600217B
:1017600007E016F8013F002B3FF494AE242B3FF422
:1017700091AE0131A942F4DBD4E9050383427FF73E
:101780008EAE236903EB00130130C3F8048060615F
:1017900083F80080E0689F604718C3F80480D96030
:1017A0006D1AE760D4E61A46DCE68B6863B11978F7
:1017B000082901F1FF3209D806293FF6E6AE012AD1
:1017C00002D8DB68002BF2D10121DFE6353918BFE2
:1017D0000121DBE62E21A7E62F21A5E6E3680233EF
:1017E000E36000255FE6FFF7A3FD002302464A21E0
:1017F0002046E5E62DE9F047C26813784E3B84B0F9
:1018000004460C2B08D8DFE803F028070707071366
:10181000072107070707760000F082FFE3681B78BF
:10182000492B054600F0A980284604B0BDE8F087A2
:101830005378742B00F0AB800021FEF7F3FEE368D1
:101840001B78492B0546EFD12046F0E000F068FFF9
:101850000546284604B0BDE8F0870132C26003A9FE
:10186000012200F043FE0746002800F08B80002193
:101870002046FEF707FDE1680E7880462EB3DFF8BC
:1018800004934FF0000A442E6AD0A6F13003DBB275
:101890001C2B40F2FD80A6F16103192B00F2FA80A7
:1018A000204600F03DFF0546BAF1000F06D00121A9
:1018B0002B4652462046FEF79BFC0546532E08D188
:1018C000E168AA460E78002EDDD100253D60ABE729
:1018D0000546E1680E78452E00F08C80002DF4D08E
:1018E000D4E908329342F0DAE269581C42F82350F6
:1018F000AA462062E6E70132C2600021FFF718FD28
:10190000054600283ED0E368197845293AD15A1C8B
:10191000E2605978732900F0F680642900F0918024
:101920002046FFF767FF034650B10278462A07D0EA
:10193000482A05D001902046FEF752FF019B08B3CC
:101940002A78032A05D1EA681178292904BF0021E1
:1019500091602A4620460221FEF74AFC054663E7CD
:101960004B7803F0DF03542B204652D000F0D8FE12
:101970000546BAF1000F9AD1ABE718B1D4E90832A5
:1019800093424EDB0025284604B0BDE8F087D0E93D
:10199000053102328B42C26080F2B380026977481F
:1019A00002EB0315591C1B01616100216960D154D0
:1019B0000323C5E90203204600F0B2FE2A4603468F
:1019C00001212046FEF714FCE36AE2680333E36278
:1019D0001378492B05467FF427AF0028D2D0D4E9ED
:1019E00008329342CEDAE1695A1C41F823002262A0
:1019F00020461CE0152329FA03F3DB075AD52046BD
:101A000000F08EFE002D3FF463AFAA46012105468B
:101A10004EE700F0B9F80546BAF1000F7FF447AF82
:101A200057E7E1695A1C41F8230020462262FFF77C
:101A300075FC2A46034604212046FEF7D9FB0546DD
:101A4000F2E60233E3602046FEF72EFD071E99DB27
:101A50002046FFF7CFFE064628B10378462B02D07A
:101A6000482B40F08480D4E905239A4265DA216945
:101A700001EB021310014FF0000CC3F804C0013257
:101A80004FF0470C626101F800C0C3E9026757E7F5
:101A90005546B0E7552E32D0532E66D1012120464F
:101AA000FEF7C0FD0546BAF1000F7FF400AFE16814
:101AB000AA4607E7492E42D0542E4CD0452E09D0D5
:101AC0004D2E7FF402AF002D3FF4FFAE0131E160F7
:101AD000AA46F7E63D60002D3FF454AFB8F1000F81
:101AE00004D0039BC8F80830CDF80C80E3681A785E
:101AF000452A7FF447AF0133039DE36094E65546E2
:101B00007DE7002557E70233E3602046FEF768FED5
:101B100000283FF437AFD4E905239A420DDA216952
:101B2000174E01EB0213501C120160610020586037
:101B300088540E22C3E9026202E7002300E7002D69
:101B40003FF4C3AE0131E1602046FFF7B5FBAA4682
:101B500004210546ACE62046FEF7C0FCAA46054631
:101B6000BAF1000F7FF4A3AEB3E65546A4E72046D2
:101B7000FEF736FE00287FF476AF03E744190A0823
:101B800034190A08FF0308102DE9F041C1680B78E9
:101B9000722B82B0044658D0562B56D04B2B54D0C3
:101BA000442B00F09E80A3F130024A2A00F290807C
:101BB000DFE812F02D012D012D012D012D012D0148
:101BC0002D012D012D012D018E008E008E008E0025
:101BD0008E008E008E0001028E0044018E008E0069
:101BE000600166018E008E008E008E008E00410224
:101BF0002D01740182018E0090019E01C201E90154
:101C00008E008E008E008E002D018E008E008E00C4
:101C10008E008E008E0010011001100110011001C5
:101C2000100110011001100110018E0010011001AF
:101C3000100110018E008E008E0010011001520163
:101C400010011001100110011001002201A920460D
:101C500000F04CFC054600283AD0E3681B78462B80
:101C600020463AD0FFF790FF2860002830D0037854
:101C70001F3B012B05D8019A836882602A68019274
:101C80002B60019D25B3D4E90832934220DAE16943
:101C90005A1C284641F82350226202B0BDE8F08168
:101CA0000123056B0363FFF7E7F825630246002372
:101CB00043212046FEF79CFA0546019040B1E368B7
:101CC0001A782AB15A1CE2601B78452B00F0A780D5
:101CD0000025284602B0BDE8F08100F0EBFC28604A
:101CE000C3E74B7803F0DF024F2AAED0773B012BDE
:101CF000ABD94B1CC3604B78002BE9D08B1CC36065
:101D00004B78463B302BE3D801A252F823F000BFBA
:101D100067200208D11C0208D11C0208D11C02084D
:101D2000D11C0208D11C0208D11C0208D11C0208D7
:101D3000D11C0208D11C0208D11C0208D11C0208C7
:101D4000D11C0208D11C0208A11C0208D11C0208E7
:101D5000D11C0208D11C0208D11C0208D11C0208A7
:101D6000D11C0208D11C0208D11C0208D11C020897
:101D7000D11C0208D11C0208D11C02080321020850
:101D8000D11C0208DD200208A72102087D210208DB
:101D900053210208D11C02082921020883220208CB
:101DA000D11C0208D11C0208D11C0208D11C020857
:101DB0005B220208D11C020845220208D11C02083D
:101DC000D11C02081B220208A11C0208F1210208F2
:101DD000B7210208D4E90525BF48613B03EB830323
:101DE000AA4200EB830380F2AB82206900EB02156C
:101DF000160100276F6001322727626187555868F6
:101E0000E26AAB6001310244E160E26261E72046D0
:101E1000FFF7F0FC05460190002D3FF459AFD4E9DF
:101E200008329342BFF654AFE16941F82350019D57
:101E30005A1C2846226202B0BDE8F0810131E160FF
:101E40002046FFF7A1FE0023024625212046FEF78B
:101E5000CFF905460190DFE70131E1602046FEF74A
:101E60005DFB0023024628212046FEF7C1F9054606
:101E70000190D1E7204600F01DFC05460190CBE71C
:101E80000131E1602046FFF77FFE00230246262154
:101E90002046FEF7ADF905460190BDE70131E1604E
:101EA0002046FFF771FE0023024624212046FEF75C
:101EB0009FF905460190AFE70131E1602046FFF749
:101EC00063FE0023024622212046FEF791F90546D3
:101ED0000190A1E70131E1602046FFF755FE0023A4
:101EE000024623212046FEF783F90546019093E739
:101EF0004B78A3F13002092A05D95F2B03D0413B6F
:101F0000192B00F2E28100212046FEF78BFBE368EB
:101F100001901A78492A05467FF4DBAE0133E3606D
:101F20002046FFF7C9F92A46034604212046FEF75A
:101F30005FF9054601906FE72046FEF7CFFAE668A5
:101F400001903378492B05467FF466AF636B002B15
:101F500040F0C88100283FF4BBAED4E908218A4292
:101F6000BFF6B6AEE16941F8220001322262327852
:101F7000493A012A05D80136E6602046FFF79CF968
:101F800003462A46D1E70131E1602046FEF7C6FA52
:101F9000E36801901A78492A054600F07B812046C3
:101FA000FFF7F2FD019B024621212046FEF720F9B2
:101FB0000546019030E74D1CE5604B785F2B00F043
:101FC0006781303B092B00F272812B4619460133A1
:101FD000E3601A78303A092AF8D9D4E90520824218
:101FE000A3EB0507BFF674AED4F810C000200CEBCD
:101FF000021602F1010E874270604FEA0212C4F825
:1020000014E07FF765AE70600CF80200C6E9025775
:102010004A785F2A7FF45CAE1D460135E5602046B4
:10202000FFF7B2FD324603462A212046FEF7E0F8CC
:1020300005460190F0E60131E1602046FFF7A4FD7E
:10204000054600283FF444AE2046FFF79DFD0346B9
:1020500000283FF43DAE2A462B212046FEF7C8F863
:1020600005460190D8E6D0E90532934280F26C81B2
:10207000006900EB03121D010026566001332C2677
:102080006361019246558B78303BDBB2092B94BFDC
:1020900001230023938103D804F10C00FEF7A8F973
:1020A0002046019DFFF770FD019BA8609B68002BF7
:1020B0003FF40EAE04F10C00FEF79AF9E2681378D3
:1020C00013B1531CE3601378019DA3F173025342D3
:1020D0005341EB81FDE500BFB05A0708D0E9053256
:1020E0009342BFF6F5AD0269994E02EB0315591CF8
:1020F0001B01416100210E206960D154C5E90260D5
:10210000E7E5D0E905329342BFF6E2AD0269914EB0
:1021100002EB0315591C1B01416100210420696079
:10212000D154C5E90260D4E5D0E90532934280F28A
:1021300007810269884902EB031500206860581C7A
:102140001B0160612720D054E36AA9600433E36275
:10215000BFE5D0E90532934280F2F28002697F49FF
:1021600002EB031500206860581C1B0160612720EA
:10217000D054E36AA9600933E362AAE5D0E90532E5
:10218000934280F2DD800269754902EB031500205D
:102190006860581C1B0160612720D054E36AA96065
:1021A0000A33E36295E5D0E90532934280F2C880B4
:1021B00002696C49D4E78B785F2B00F0B780FEF79B
:1021C0005BF90546002D3FF483ADE3681A785F2A7A
:1021D0007FF47EAD0133E3602046FFF7D5FC2A464D
:1021E00003462D212046FEF703F80546019013E62D
:1021F000D0E90532934280F2A38002695A4902EB8A
:10220000031500206860581C1B0160612720D05412
:10221000E36AA9600733E3625BE5D0E905329342E4
:1022200080F28E800269514902EB0315002068603C
:10223000581C1B0160612720D054E36AA960083351
:10224000E36246E5FFF7A0FC002302464B2120464F
:10225000FDF7CEFF05460190DEE5D0E90532934259
:102260006EDA0269424902EB031500206860581CCF
:102270001B0160612720D054E36AA9601133E36237
:1022800027E5D0E9053293425ADA02693949CBE7AA
:102290000026C2E60133E3602046FFF70DF82A4628
:1022A000034604212046FDF7A3FF019077E60123B2
:1022B000256B23632046FEF7DFFD256306460028D5
:1022C0003FF406ADE3681A78A3E62046FFF792FADA
:1022D0000546019000283FF4FBAC0378182B7FF4EF
:1022E0009EADF6E4731CE3602046D4F81480276AA0
:1022F000E56AFEF7E1FFE3681A78492A034606D04B
:10230000E562E660019DC4F81480276284E5019AC5
:10231000002A3FF4DDACD4E908108142BFF6D8AC06
:10232000E569481C45F821202062FEE503310123C0
:10233000056BC1600363FEF79FFD2563054641E71A
:10234000002301939B68FFDE00231B70FFDE00BFAC
:1023500050190A0848190A08F45C0708B85C07080D
:10236000E05C0708CC5C0708085D07081C5D0708EF
:10237000445D0708305D0708F8B5C3681F78064656
:102380005FBB4FF0000E394D432100228B1A03EB47
:10239000D37302EB6303180105EB031C2C58207860
:1023A000B84206D094BF5A1C19468A42EED100208A
:1023B000F8BD60787045F5D1D6E905329342F6DA7A
:1023C000326902EB03101901002444600133322406
:1023D00073615454C0F808C0F8BD5A1CC26093F829
:1023E00001E01F78BEF1000F02D1762FCBD0C8E7F5
:1023F0009A1CC260762F93F801E01BD1AEF1300435
:10240000E3B2092BBFD8FEF789F8D6E905318B4234
:102410000246CCDA316901EB03105F1C00254560F0
:102420001B017761002AC2D033264560CE54C0E933
:102430000242F8BD632FA6D1BEF1760FA3D1D0E939
:102440000C34B3FA83F35B094363FFF79DFB736BB3
:10245000024633B1002335213046FDF7C9FE7463CF
:10246000F8BD34213046FDF7C3FEF8E7585D070894
:1024700030B5C26883B000230193137823B30446B8
:1024800001AD11E04F2B16D0FFF77EFB0246002373
:102490002E212046C2B1FDF7ABFE2860A0B1E26854
:1024A000137800F10C054BB1452B204606D02E2B9E
:1024B00004D0522BE6D15378452BE5D1019818B1C1
:1024C000C36823B103B030BD002003B030BD8268C3
:1024D00011782729F6D19268117C0929F2D1516827
:1024E000E26A521AE2628360ECE700BF2DE9F04F26
:1024F000D0F80CC0171E9CF8003083B004460D467F
:1025000015BF4FF01E0A4FF01B0A4FF01D094FF088
:102510001A0914BF4FF01C084FF019080E464FF06F
:10252000010B722B15D0562B13D04B2B11D0442BF3
:1025300006D00FB9462B5DD0304603B0BDE8F08F12
:102540009CF8012002F0DF014F2902D0773A012ADE
:10255000EFD80CF10102722BE26016D0562B2CD072
:102560004B2B24D09CF80130002B3ED00CF1020301
:10257000E3609CF80110782951D06F2923D1E36AD8
:102580000933E3624F21002304E0E36A0933E36285
:102590004146002300222046FDF72AFE306020B38A
:1025A000D4F80CC000F108069CF80030B9E7E36AE3
:1025B0000633E36251460023ECE7E36A0933E36242
:1025C00049460023E6E74F293CD1D4E90B320933D1
:1025D000E362C4F830B0204601910092FEF74CFC53
:1025E000009A01992263034628BB0026304603B0B7
:1025F000BDE8F08FAE429FD01D241E201C2105E0B7
:10260000192A15D003F10805AE4295D02B681A7827
:102610001A2A0AD01B2AF3D118702B68F2E7E36A52
:102620001133E3624D210023B4E71C702B68E9E706
:1026300019702B68E6E7E26810784528D5D1013299
:10264000E260A7E77729D0D1E36A0633E362204648
:10265000FFF70EFF03460028C7D0E268117845292E
:10266000C3D10132E260502194E700BF70B5C36866
:102670001A784A2A05461AD081B12846FFF784FA0B
:10268000044690B12846FFF7F3FE034668B12246A0
:1026900028462921BDE87040FDF7AABD28460C4612
:1026A000FFF7E6FE03460028F1D1002070BD01339C
:1026B000C360E2E710B50446806810F480200BD1B7
:1026C000A26BB2F5006F06D8511CE368A1631978BC
:1026D000462907D0A26310BDE3681A78462A01D0C4
:1026E000002010BD5A1CE2605A78592A04BF0233F8
:1026F000E36001212046FFF7B9FF01462046FDF7C0
:10270000C1FDE3681A78452A04BF0133E360A3687A
:1027100018BF00205B03DED4A26B013ADAE700BFEA
:10272000F8B5C2681378A3F13001092904464FD9DE
:10273000A3F16101192914D86F2B04D153786E2BA2
:1027400004BF0232C2602046FFF716FE054610B1F4
:102750000378322B49D0E368197842293FD02846C4
:10276000F8BDA3F1430101296CD94C2B5AD0552B4C
:1027700063D153786C2B00F0D080742B5DD1531C47
:10278000C360517874295BD10232C260FDF78CFEC0
:102790000028C0F2EF80D4E90532934280F2EA804B
:1027A00022691E0102EB03150021013348276960ED
:1027B00063619755D4E908329342A86080F2DA80C9
:1027C000E169E26841F82350013323621178C4E7DC
:1027D000FDF7A4FEE368197842290546BFD12946D2
:1027E0002046BDE8F840FDF7FFBE8268E36A9168C5
:1027F000126807330B44E36213786C2BABD1537828
:10280000692BA8D19378002BA5D12046FDF786FE31
:102810002A46034637212046FDF7EAFCE3680546D1
:1028200019789AE70132C260FDF778FE054620B1BB
:102830002046FDF7D5FF00288DD100252846F8BD9C
:1028400000258AE7806A18B1017851B3182928D089
:10285000432B30D15378492B00F09080A3F1310104
:102860000429EAD8303B0232DEB2E260D4E9053115
:102870008B4280F29780216901EB031503F1010C73
:1028800000276F601B01C4F814C0002800F090807E
:102890004FF0070C6F6001F803C02E72E8601178EA
:1028A0005BE7C168E36A0B44E362117843290B4696
:1028B000D0D04429C4D15178303905292AD8DFE84D
:1028C00001F0031D262923204FF0010CD4E9053126
:1028D000951C8B42E56062DA216901EB03155F1CF0
:1028E00000266E601B01676100285ED008276E60BD
:1028F000CF5485F808C0E86091782EE74FF0020CBD
:10290000E4E74FF0050CE1E74FF0040CDEE74FF091
:10291000030CDBE7194600251FE7531CC360517801
:102920006C298DD10232C260FFF7A2FDE368064632
:1029300008B31978452983D10133E3602046FDF7B8
:10294000B3FD002816DBD4E90532934212DA22697E
:102950001F0102EB0315002101334FF0460C6960A3
:10296000636102F807C0D4E908329342C5E9026006
:10297000FFF626AFE36819780025EEE6531CE36006
:102980009378A3F13101042915D80332E260303B7A
:102990002046DEB2FFF7F8F8A06AE26866E79178B1
:1029A0000025DAE611780025D7E691780546D4E6C9
:1029B00011780546D1E651780025CEE6F8B5C26813
:1029C00013784C2B31D1531CC36051785F290546D5
:1029D00033D05A290CD10133EB6000212846FEF791
:1029E000A7FCEB681A78452A1FD10133EB60F8BDCC
:1029F000FFF7CAF8C8B10378272B06D183681A7C81
:102A00001AB15A68EB6A9B1AEB62EA6814786E2C6A
:102A10000DD03D21452C39D0134603E0EB601C78E6
:102A2000452C12D00133002CF8D10020F8BD531CE6
:102A3000EB6054783E211A46ECE7931CC360927811
:102A40005A2A18BF0020CED1C5E79C1AD5E90563E4
:102A50009E4219DAD5F810C000270CEB061306F1D8
:102A6000010EBC425F604FEA0616C5F814E00BDDAC
:102A70005F600CF80670C3E9022402462846FDF7A1
:102A8000B7FBEB681A78AEE70023F6E70024DDE732
:102A90002DE9F04F044697B0002A74D05368012BFB
:102AA000154670DCD0F81C21B2F5806F6BDC0E4649
:102AB000591C6960D0F81871D0F82C11029502F1F8
:102AC000010C02A8C4F81CC10391C4F82C01002F0A
:102AD00040F0D88095F800C0BCF1500F01F216808C
:102AE000DFE81CF0E707200120018C0371081804BF
:102AF000BE07B1078C07660740071A07F406CE0623
:102B00008D06670641061B06F505CF05A905830559
:102B10005D0537050D05FB00FB00FB00D800D80064
:102B2000D800D800D800D800D80008020802D80081
:102B3000D8004A023E0222027802DE01DC02DE01F7
:102B40009A019A0175093009B009D70814080A09D1
:102B5000FD0838032D03720A620AFB01FB015701CD
:102B600057013C0A2A0A080AD909EB0AC50A9F0A32
:102B7000790A1408E804C2049C0442044608D800F8
:102B80001B08D800D8000123C4F8183117B0BDE8DD
:102B9000F08FAA6893681B685978632902F0528401
:102BA00005F10C033146204603F044FE0746002899
:102BB00042F04084AB681A78322A02F0DC849B68C9
:102BC000C949186804F0BCF9EB6820B99A68117813
:102BD000032902F019869A683146204603F0DAFD8F
:102BE000AF68C249BB68D3F80080404604F0A8F93A
:102BF0008146002842F0B084D4F80031FF2B0ED17A
:102C000084F8FF0019462046D4E942329847D4F8A8
:102C10002831C4F800915A1CC4F828214B46591C8D
:102C20005B22C4F80011E25484F80421EB683146B9
:102C3000DA682046FFF72CFFD4F80031FF2B0FD1C4
:102C40000026194684F8FF60D4E9423220469847AE
:102C5000D4F82831C4F800615A1CC4F8282133463E
:102C60005D22591CC4F80011E25484F80421AB68B9
:102C70001A78322A02F02E856B68D4F81C21039949
:102C8000013B013AC4F82C116B60C4F81C2117B049
:102C9000BDE8F08F0022D4E94431CDE9061506A93C
:102CA000C4F814110021CDE90813A946002A36D032
:102CB00031462046FFF7ECFE089B002B01F06885AB
:102CC000069BC4F814310FB1C4F810816B68D4F8B6
:102CD0001C210399013B013AD4E7D4F814E173466F
:102CE000BEF1000F0ED0996849B95A681278A2F166
:102CF0001900022802F2EB81944502F0DB811B6887
:102D0000002BF0D1A94606ABC4F81431D4F8103129
:102D1000CDF818E00022CDE90823CDF81C90D9F8B1
:102D20000820C5E7AA6831462046FFF7B1FE16F035
:102D3000040A02F0DA80D4F80031FF2B0FD100270B
:102D4000194684F8FF70D4E9423220469847D4F8F7
:102D50002831C4F800715A1CC4F828213B462E22A1
:102D6000591CC4F80011E25484F80421D5F80C80F1
:102D700098F80030472B02F0F68142463146204653
:102D8000FFF786FE6B68D4F81C210399013B013ADA
:102D900078E7AA681378272B01F06E870027D4F80C
:102DA0000011FF290ED14FF00008D4E9423284F817
:102DB000FF8020469847D4F82831AA68013341465D
:102DC000C4F828312823481CC4F800016354204665
:102DD00084F804313146FFF75BFED4F80031FF2B55
:102DE00001F07487591C2922C4F80011E25484F8B8
:102DF00004212B783E2B02F03182082F02F0BD8097
:102E0000EA6831462046FFF743FE6B68D4F81C2180
:102E10000399013B013A35E7AA681AB131462046C9
:102E2000FFF736FEEB68002B02F02C81D4F800315E
:102E3000FD2B0ED90027E75419462046D4E942322B
:102E40009847D4F82831C4F800715A1CC4F82821D6
:102E50003B46DFF89C904FF02C0809F1010B4FF036
:102E6000000A19460CE00B460131CB45C4F80011AD
:102E700004F8038084F8048101F0AB8419F8018F11
:102E8000FF29F0D1D4E9423284F8FFA020469847C8
:102E9000D4F828310133C4F8283101210023E4E7B4
:102EA000D4E9443106AA0020CDE90615C4F814215E
:102EB0000890EA68099331462046FFF7E9FD089B30
:102EC000002B01F0FC866B68D4F81C210699C4F82D
:102ED0001411013B0399013AD4E60123C4F81831D7
:102EE0006B68013BCEE600BF401B0A08441B0A0882
:102EF000181B0A08D4F82031D5F808902BB999F896
:102F00000070052F02F0C3811F4699F80030232B73
:102F100001F096842A789A4201F09284242B02F0E0
:102F20001783D4F814E1EDE6B30601F12F86AA6801
:102F3000002A02F0DD8016F0400026F0600602F064
:102F4000E080D4F81431314605F10C02204603F03C
:102F5000DBF86B68D4F81C210399013B013A91E638
:102F6000AA6831462046FFF793FD6B68D4F81C2110
:102F70000399013B013A85E616F0040641F06484AA
:102F8000AF68D7E9007000283FF47CAE3844D4F82D
:102F9000001100F1FF39013FB04609E00B46013155
:102FA000B945C4F80011E65484F8046101F0CE85F7
:102FB000FF2917F8016FF1D1D4E9423284F8FF807C
:102FC00020469847D4F828310133C4F8283101212C
:102FD0000023E5E7D4E9443E0DF1180971460022CB
:102FE000CDF800E0CDF818E0CDE908230795C4F846
:102FF0001491CE46002902F094844FF00108B446A3
:10300000009FC3464E4617E0BB689BB9B8F1030F5B
:1030100002F2728097E80F00AAF1400E8EE80F00CE
:103020004AF8406C09EB0816C4F8146108F101086D
:10303000C7F808B03F683FB17B681B78193B022B8B
:1030400016AB03EB081ADFD9EA68614620466646EC
:10305000FFF71EFD089B009AC4F81421BBB9B8F114
:10306000010F0CD009EB08180AAF58F80C2C3146A8
:10307000A8F11008204602F041FD4745F5D1D4F8EB
:103080001431314605F10802204603F06DFA6B68F1
:10309000D4F81C210399013B013AF3E5B5F90E3050
:1030A000002B41F04587AA68D84B9168994201F0FE
:1030B000498531462046FFF7EBFCD4F80031FF2B61
:1030C0000FD10026194684F8FF60D4E94232204629
:1030D0009847D4F82831C4F800615A1CC4F8282154
:1030E00033462022591CC4F80011E25484F804210C
:1030F000B5F90C30002B41F0C684C54F984607F156
:1031000005095F260BE00B460131B945C4F80011F3
:10311000E65484F8046101F0AE8417F8016FFF29CA
:10312000F1D1D4E9423284F8FF8020469847D4F8A0
:1031300028310133C4F8283101210023E5E7EB6889
:103140001B78392B3FF425AD0123C4F818316B6887
:10315000013B97E5D5E9028798F80030322B01F062
:103160001386342B42F0EE83D4F80031FF2B10D1BC
:103170004FF00009194684F8FF90D4E94232204606
:103180009847D4F82831C4F800915A1CC4F8282173
:103190004B46591C2822C4F80011E25484F804213B
:1031A000D8F8082031462046FFF772FCD4F80031E9
:1031B000FF2B10D14FF00008194684F8FF80D4E9A6
:1031C000423220469847D4F82831C4F800815A1C6E
:1031D000C4F8282143462922591CC4F80011E2549E
:1031E00084F804213A463146204603F0D3FA6B684E
:1031F000D4F81C210399013B013A43E5D4F814317A
:10320000D5F8088000930023C4F81431B8F1000FFA
:1032100002F0C2800DF11809D4F810E11F461846DB
:103220004A46C2E90038C2E9020E98F800104D295A
:10323000A1F11C0AA1F14F0C07F10107134601F09F
:10324000DD8200F26087BAF1040F41F2D7820229D1
:10325000C4F8142116D1D8F80C8098F80030472B08
:1032600002F0578309EB071C98F800304D2BA3F1AF
:103270001C01A3F14F0201F0EB8601F2E68604295E
:1032800041F2E68698F80030042B04D1CDE904E839
:1032900004ABC4F81031EA6831462046FFF7F8FB6A
:1032A00098F80030042B02D1049BC4F8103109EBCC
:1032B00007174FF02008AA4657F8085CE5B9D4F87C
:1032C0000011FF290BD1D4E9423284F8FF50204687
:1032D0009847D4F8283101332946C4F828314B1CCB
:1032E000C4F8003157F80C2C04F801802046314610
:1032F00084F8048102F002FC103FB945DCD1009B48
:10330000C4F8143155466B68D4F81C210399013B6D
:10331000013AB7E4D4F82031002B01F08C833D4F03
:10332000D4F8001107F1040961264FF000080BE002
:103330000B460131B945C4F80011E65484F8046124
:1033400001F0CB8317F8016FFF29F1D1D4E94232A4
:1033500084F8FF8020469847D4F828310133C4F818
:10336000283101210023E5E7A9682046FDF780FA0E
:103370004FF0000A002802F0878103782F2B41F0DC
:103380004D828368002B01F04982C0680AF1010A6E
:103390000028F2D1AB681A460AF1FF330093904639
:1033A000A146019503E00137BA4541F30882C9F807
:1033B0002471424631464846FFF76AFB009B9F4214
:1033C000F1DA154CD9F8001104F1010B2C250BE0B2
:1033D0000B460131A345C9F8001109F8035089F8DB
:1033E0000451E0D014F8015FFF29F1D14FF0000340
:1033F00089F8FF304846D9E942329847D9F8283150
:103400000133C9F8283101210023E3E7505B0708A5
:10341000081B0A0890190A08181B0A08DFF8F88325
:10342000D4F8001108F1190A6E274FF000090BE0DB
:103430000B460131C245C4F80011E75484F8047109
:1034400001F0148118F8017FFF29F1D1D4E942324B
:1034500084F8FF9020469847D4F828310133C4F807
:10346000283101210023E5E7DFF8B083D4F800110B
:1034700008F1150A74274FF000090BE00B460131E3
:10348000C245C4F80011E75484F8047101F0E180EA
:1034900018F8017FFF29F1D1D4E9423284F8FF9076
:1034A00020469847D4F828310133C4F82831012147
:1034B0000023E5E7D74FD4F8001107F10D097B266B
:1034C0004FF000080BE00B460131B945C4F800117C
:1034D000E65484F8046100F08B8717F8016FFF2928
:1034E000F1D1D4E9423284F8FF8020469847D4F8DD
:1034F00028310133C4F8283101210023E5E7D5E95B
:10350000026000283FF4BEAB3044D4F8001100F153
:10351000FF39013E4FF0000809E00B460131B1458B
:10352000C4F80011E75484F8047101F03881FF29D0
:1035300016F8017FF1D1D4E9423284F8FF802046A9
:103540009847D4F828310133C4F8283101210023E9
:10355000E5E7DFF8CC82D4F8001108F1100A6827FB
:103560004FF000090BE00B460131C245C4F80011D1
:10357000E75484F8047100F0888718F8017FFF2968
:10358000F1D1D4E9423284F8FF9020469847D4F82C
:1035900028310133C4F8283101210023E5E7DFF8A1
:1035A0008482D4F8001108F1140A72274FF0000940
:1035B0000BE00B460131C245C4F80011E75484F812
:1035C000047100F0CA8718F8017FFF29F1D1D4E90E
:1035D000423284F8FF9020469847D4F828310133CE
:1035E000C4F8283101210023E5E7DFF83C82D4F854
:1035F000001108F1180A54274FF000090BE00B46A0
:103600000131C245C4F80011E75484F8047100F098
:10361000978718F8017FFF29F1D1D4E9423284F865
:10362000FF9020469847D4F828310133C4F8283158
:1036300001210023E5E7DFF8F481D4F8001108F157
:10364000150A54274FF000090BE00B460131C24523
:10365000C4F80011E75484F8047100F0648718F886
:10366000017FFF29F1D1D4E9423284F8FF9020464E
:103670009847D4F828310133C4F8283101210023B8
:10368000E5E7DFF8AC81D4F8001108F1120A6727EA
:103690004FF000090BE00B460131C245C4F80011A0
:1036A000E75484F8047100F0318718F8017FFF298E
:1036B000F1D1D4E9423284F8FF9020469847D4F8FB
:1036C00028310133C4F8283101210023E5E7DFF870
:1036D0006481D4F8001108F10E0A6A274FF000093E
:1036E0000BE00B460131C245C4F80011E75484F8E1
:1036F000047100F0FE8618F8017FFF29F1D1D4E9AA
:10370000423284F8FF9020469847D4F8283101339C
:10371000C4F8283101210023E5E7DFF81C81D4F843
:10372000001108F1190A63274FF000090BE00B465E
:103730000131C245C4F80011E75484F8047100F067
:10374000CB8618F8017FFF29F1D1D4E9423284F801
:10375000FF9020469847D4F828310133C4F8283127
:1037600001210023E5E7DFF8D480D4F8001108F147
:10377000100A76274FF000090BE00B460131C245D5
:10378000C4F80011E75484F8047100F0988618F822
:10379000017FFF29F1D1D4E9423284F8FF9020461D
:1037A0009847D4F828310133C4F828310121002387
:1037B000E5E7DFF88C80D4F8001108F1140A6E27D1
:1037C0004FF000090BE00B460131C245C4F800116F
:1037D000E75484F8047100F0658618F8017FFF292A
:1037E000F1D1D4E9423284F8FF9020469847D4F8CA
:1037F00028310133C4F8283101210023E5E7DFF83F
:103800004480D4F8001108F10F0A74274FF0000922
:1038100026E000BFF41B0A08E41A0A08E81A0A089E
:10382000D01A0A08B81A0A089C1A0A08841A0A0840
:10383000701A0A08601A0A08441A0A08301A0A0894
:103840002C1A0A08181A0A080B460131C245C4F896
:103850000011E75484F8047100F0808718F8017FA4
:10386000FF29F1D1D4E9423284F8FF9020469847ED
:10387000D4F828310133C4F8283101210023E5E7C9
:10388000DFF86485D4F8001108F1110A74274FF0AD
:1038900000090BE00B460131C245C4F80011E754A2
:1038A00084F8047100F04D8718F8017FFF29F1D1E9
:1038B000D4E9423284F8FF9020469847D4F8283162
:1038C0000133C4F8283101210023E5E7DFF81C8526
:1038D000D4F8001108F10C0A74274FF000090BE02E
:1038E0000B460131C245C4F80011E75484F8047155
:1038F00000F00D8718F8017FFF29F1D1D4E9423299
:1039000084F8FF9020469847D4F828310133C4F852
:10391000283101210023E5E7DFF8D484D4F8001131
:1039200008F1170A63274FF000090BE00B4601313D
:10393000C245C4F80011E75484F8047100F0BD8654
:1039400018F8017FFF29F1D1D4E9423284F8FF90C1
:1039500020469847D4F828310133C4F82831012192
:103960000023E5E7DFF88C84D4F8001108F1070A9A
:1039700056274FF000090BE00B460131C245C4F851
:103980000011E75484F8047100F08A8618F8017F6A
:10399000FF29F1D1D4E9423284F8FF9020469847BC
:1039A000D4F828310133C4F8283101210023E5E798
:1039B000DFF84484D4F8001108F10A0A76274FF0A2
:1039C00000090BE00B460131C245C4F80011E75471
:1039D00084F8047100F0578618F8017FFF29F1D1AF
:1039E000D4E9423284F8FF9020469847D4F8283131
:1039F0000133C4F8283101210023E5E7D4F8001190
:103A0000FF290CD10027D4E9423284F8FF70204608
:103A10009847D4F8283101333946C4F828317E2339
:103A20004A1CC4F80021635484F80431EA68314622
:103A30002046FFF72DF86B68D4F81C210399013B51
:103A4000013AFFF71FB9EA6831462046FFF720F830
:103A50006B68D4F81C210399013B013AFFF712B9B6
:103A6000D5F80880B8F1000F40F06A87DD4FD4F830
:103A7000001107F1030974260BE00B460131B9452B
:103A8000C4F80011E65484F8046100F0CC8717F8FC
:103A9000016FFF29F1D1D4E9423284F8FF8020463A
:103AA0009847D4F828310133C4F828310121002384
:103AB000E5E716F0040640F0F286D5E9027000282A
:103AC0003FF4E0A83844D4F8001100F1FF39013F79
:103AD000B04609E00B460131B945C4F80011E6547F
:103AE00084F8046101F04A80FF2917F8016FF1D1D1
:103AF000D4E9423284F8FF8020469847D4F8283130
:103B00000133C4F8283101210023E5E70123C4F87B
:103B100018316B68013BFFF7B5B8DFF8E082AA689F
:103B200031462046FEF7B4FF08F1070AD4F8001129
:103B300020274FF000090BE00B460131C245C4F8C5
:103B40000011E75484F8047100F0328518F8017F01
:103B5000FF29F1D1D4E9423284F8FF9020469847FA
:103B6000D4F828310133C4F8283101210023E5E7D6
:103B7000DFF88C82AA6831462046FEF789FF08F1FB
:103B8000040AD4F800115B274FF000090BE00B4644
:103B90000131C245C4F80011E75484F8047100F003
:103BA000338518F8017FFF29F1D1D4E9423284F836
:103BB000FF9020469847D4F828310133C4F82831C3
:103BC00001210023E5E700237207D4F81481D4F81B
:103BD0004871D5F80890C4F81431C4F8485107D595
:103BE00099F8003023B9D9F80C20062A01F05E8537
:103BF0004A4631462046FEF74BFF94F804313C2BF1
:103C000001F0A480D4F80011FF290DD14FF0000974
:103C1000D4E9423284F8FF9020469847D4F82831FE
:103C200001334946C4F828313C234A1CC4F800211A
:103C3000635484F80431EA6831462046FEF728FFD1
:103C400094F804313E2B01F06480D4F80011FF2970
:103C50000CD10026D4E9423284F8FF602046984710
:103C6000D4F8283101333146C4F828313E234A1CA8
:103C7000C4F80021635484F804316B68D4F81C2123
:103C80000399C4F81481C4F84871013B013AFEF766
:103C9000F9BFDFF87081D4F8001108F1080A6F2726
:103CA0004FF000090BE00B460131C245C4F800118A
:103CB000E75484F8047100F02E8218F8017FFF2980
:103CC000F1D1D4E9423284F8FF9020469847D4F8E5
:103CD00028310133C4F8283101210023E5E7AA681F
:103CE0003146204602F01AFD6B68D4F81C21039976
:103CF000013B013AFEF7C6BFDFF80881D4F8001196
:103D000008F1080A6F274FF000090BE00B4601315C
:103D1000C245C4F80011E75484F8047100F07B82B6
:103D200018F8017FFF29F1D1D4E9423284F8FF90DD
:103D300020469847D4F828310133C4F828310121AE
:103D40000023E5E7D5E902281AB131462046FEF7FF
:103D50009FFED4F80031FF2B0DD10027194684F8BF
:103D6000FF70D4E9423220469847D4F828315A1CD3
:103D7000C4F828213B46581C7B27C4F80001314673
:103D8000E7544246204684F80471FEF781FED4F8D9
:103D90000011FF290CD10026D4E9423284F8FF60DB
:103DA00020469847D4F8283101333146C4F82831E9
:103DB0004A1C7D23C4F80021635484F804316B68E5
:103DC000D4F81C210399013B013AFEF75BBFDFF8F1
:103DD0003880D4F8001108F11D0A74274FF000094B
:103DE00020E000BF941B0A08041A0A08F4190A0804
:103DF000D0190A08C4190A08B8190A08041C0A08C4
:103E000060190A08281B0A0898190A080B4601318C
:103E1000C245C4F80011E75484F8047100F01C8214
:103E200018F8017FFF29F1D1D4E9423284F8FF90DC
:103E300020469847D4F828310133C4F828310121AD
:103E40000023E5E7D5F80890D34FD9F80880D4F8D7
:103E5000001107F1070B6F264FF0000A0BE00B462D
:103E60000131BB45C4F80011E65484F8046100F048
:103E70005F8117F8016FFF29F1D1D4E9423284F84C
:103E8000FFA020469847D4F828310133C4F82831E0
:103E900001210023E5E7AA68C04906A84DF028F9EA
:103EA00006A803F057F8002800F0A08106AED4F869
:103EB000001106EB00094FF0000809E00B46013144
:103EC000B145C4F80011E75484F8047100F08E8104
:103ED000FF2916F8017BF1D1D4E9423284F8FF8042
:103EE00020469847D4F828310133C4F828310121FD
:103EF0000023E5E7D4F800012E7AFF2814D14FF013
:103F00000008D4E94232014684F8FF8020469847F1
:103F1000D4F828016B68D4F81C210399471CC4F815
:103F200028714046013B013A471CC4F800712654F1
:103F300084F80461FEF7A6BEAA6831462046FEF763
:103F4000A7FDEA6831462046FEF7A2FD6B68D4F86B
:103F50001C210399013B013AFEF794BEDFF8408231
:103F6000D4F8001108F10D0A6A274FF000090BE0A0
:103F70000B460131C245C4F80011E75484F80471BE
:103F800000F03C8118F8017FFF29F1D1D4E94232D9
:103F900084F8FF9020469847D4F828310133C4F8BC
:103FA000283101210023E5E7EB6818783B2804D18C
:103FB000DB681B783C2B01F0B1810123C4F8183178
:103FC0006B68013BFEF75EBE0123C4F818316B68D5
:103FD000013BFEF757BEDFF8CC81D4F8001108F1A1
:103FE000070A7B274FF000090BE00B460131C24561
:103FF000C4F80011E75484F8047100F0548118F8F3
:10400000017FFF29F1D1D4E9423284F8FF902046A4
:104010009847D4F828310133C4F82831012100230E
:10402000E5E7DFF88481D4F8001108F11B0A67275F
:104030004FF000090BE00B460131C245C4F80011F6
:10404000E75484F8047100F0218118F8017FFF29FA
:10405000F1D1D4E9423284F8FF9020469847D4F851
:1040600028310133C4F8283101210023E5E7DFF8C6
:104070003C81D4F8001108F11C0A67274FF00009B1
:104080000BE00B460131C245C4F80011E75484F837
:10409000047100F0EE8018F8017FFF29F1D1D4E916
:1040A000423284F8FF9020469847D4F828310133F3
:1040B000C4F8283101210023E5E7DFF8F480D4F8C3
:1040C000001108F1090A64274FF000090BE00B46C4
:1040D0000131C245C4F80011E75484F8047100F0BE
:1040E000628118F8017FFF29F1D1D4E9423284F8C6
:1040F000FF9020469847D4F828310133C4F828317E
:1041000001210023E5E7BCF1010F40F27783C4F8F9
:104110001421FFF7B7B8EA6831462046FEF7B8FC2D
:104120006B68D4F81C210399013B013AFEF7AABD44
:10413000D9F804603378613B192B1AD8FF290DD1C7
:104140000026D4E9423284F8FF6020469847D4F82C
:104150002831C4F800610133C4F82831D4F80021B3
:104160002023511CC4F80011A35484F80431D9F859
:1041700004604346F21812F8012C202A08BF08F107
:10418000FF33002B01F0D382013ED4F8001106EB7F
:1041900003094FF0000817E01C1B0A087C190A08E5
:1041A000741B0A08E41B0A08C41B0A08A41B0A089B
:1041B000841B0A080B460131B145C4F80011E754CD
:1041C00084F8047100F0F382FF2916F8017FF1D121
:1041D000D4E9423284F8FF8020469847D4F8283149
:1041E0000133C4F8283101210023E5E76B68D4F8D6
:1041F0001C210399013B013AFEF744BDAA683146F0
:104200002046FEF745FC6B68D4F81C210399013B5E
:10421000013AFEF737BDD4F8483133B1D4F8102154
:10422000079306AB0692C4F81031AA681378042BE2
:1042300000F0C68431462046FEF72AFCD4F8483107
:1042400013B1069BC4F810316B68D4F81C21039994
:10425000013B013AFEF716BDAA6831462046FEF73B
:1042600017FC6B68D4F81C210399013B013AFEF757
:1042700009BDAA6831462046FEF70AFC6B68D4F8EF
:104280001C210399013B013AFEF7FCBCAA683146A8
:104290002046FEF7FDFB6B68D4F81C210399013B17
:1042A000013AFEF7EFBCD4F82031AA68D34F0133AE
:1042B0003146C4F820312046FEF7EAFBD4F820311D
:1042C000D4F80011013BC4F8203107F10109292677
:1042D0004FF000080AE00B460131B945C4F800115F
:1042E000E65484F8046111D017F8016FFF29F2D168
:1042F000D4E9423284F8FF8020469847D4F8283128
:104300000133C4F8283101210023E6E7EA68BC49FB
:10431000013206A84CF0ECFE06A802F01BFE10B31A
:1043200006AED4F8001106EB00094FF0000808E0D3
:104330000B460131B145C4F80011E75484F804710B
:1043400013D0FF2916F8017BF2D1D4E9423284F868
:10435000FF8020469847D4F828310133C4F828312B
:1043600001210023E6E7D4F80011FF290CD1002633
:10437000D4E9423284F8FF6020469847D4F82831C7
:1043800001333146C4F828314A1C7D23C4F800218A
:10439000635484F804316B68D4F81C210399013B01
:1043A000013AFEF76FBC3146AA682046FEF770FB63
:1043B000D4F80011FF290CD10026D4E9423284F848
:1043C000FF6020469847D4F8283101333146C4F8BD
:1043D00028314A1C2923C4F80021635484F804318D
:1043E0006B68D4F81C210399013B013AFEF74ABCE3
:1043F000AA688349013206A84CF07AFE06A802F0AA
:10440000A9FD10B306AED4F8001106EB00094FF079
:10441000000808E00B460131B145C4F80011E7542B
:1044200084F8047113D0FF2916F8017BF2D1D4E986
:10443000423284F8FF8020469847D4F8283101336F
:10444000C4F8283101210023E6E7D4F80011FF2940
:104450000CD10026D4E9423284F8FF602046984708
:10446000D4F8283101333146C4F828314A1C7D2361
:10447000C4F80021635484F804316B68D4F81C211B
:104480000399013B013AFEF7FDBBAA68314620467D
:10449000FEF7FEFA6B68D4F81C210399013B013A40
:1044A000FEF7F0BBAA6831462046FEF7F1FA6B68CA
:1044B000D4F81C210399013B013AFEF7E3BBAA683B
:1044C00031462046FEF7E4FA6B68D4F81C210399C4
:1044D000013B013AFEF7D6BBAA6831462046FEF7FB
:1044E000D7FA6B68D4F81C210399013B013AFEF717
:1044F000C9BBAA6831462046FEF7CAFA6B68D4F8F1
:104500001C210399013B013AFEF7BCBBAA68314666
:104510002046FEF7BDFA6B68D4F81C210399013BD5
:10452000013AFEF7AFBBAA6831462046FEF7B0FA63
:104530006B68D4F81C210399013B013AFEF7A2BB3A
:10454000AA6831462046FEF7A3FA6B68D4F81C210E
:104550000399013B013AFEF795BBDFF8A880EA68B2
:1045600031462046FEF794FA08F1040AD4F8001107
:1045700020274FF000090BE00B460131C245C4F87B
:104580000011E75484F8047100F0F58018F8017FF9
:10459000FF29F1D1D4E9423284F8FF9020469847B0
:1045A000D4F828310133C4F8283101210023E5E78C
:1045B0003146EA682046FEF76BFAD4F80011FF296D
:1045C0000CD10026D4E9423284F8FF602046984797
:1045D000D4F8283101333146C4F828314A1C5D2310
:1045E000C4F80021635484F804316B68D4F81C21AA
:1045F0000399013B013AFEF745BB00BFF01B0A08D7
:104600007C190A08B01A0A083146EA682046FEF703
:104610003FFAD4F80011FF290CD10026D4E9423228
:1046200084F8FF6020469847D4F82831013331469A
:10463000C4F828314A1C5D23C4F80021635484F86F
:1046400004316B68D4F81C210399013B013AFEF751
:1046500019BBAA6831462046FEF71AFA6B68D4F8EF
:104660001C210399013B013AFEF70CBBAA683146B5
:104670002046FEF70DFA6B68D4F81C210399013B24
:10468000013AFEF7FFBAAA6831462046FEF700FA63
:104690006B68D4F81C210399013B013AFEF7F2BA8A
:1046A000AA6831462046FEF7F3F96B68D4F81C215E
:1046B0000399013B013AFEF7E5BADFF8B885AA682D
:1046C00031462046FEF7E4F908F1030AD4F8001158
:1046D0002D274FF000090AE00B460131C245C4F80E
:1046E0000011E75484F804711ED018F8017FFF29E7
:1046F000F2D1D4E9423284F8FF9020469847D4F8AA
:1047000028310133C4F8283101210023E6E7AA68E3
:1047100031462046FEF7BCF96B68D4F81C2103999A
:10472000013B013AFEF7AEBAEA6831462046FEF791
:10473000AFF96B68D4F81C210399013B013AFEF7ED
:10474000A1BAAA6831462046FEF7A2F96B68D4F8F0
:104750001C210399013B013AFEF794BAAA6831463D
:104760002046FEF795F96B68D4F81C210399013BAC
:10477000013AFEF787BAAA6831462046FEF788F963
:104780006B68D4F81C210399013B013AFEF77ABA11
:104790004A463146204601F0B1F9FEF791BA6B68FE
:1047A000D4F81C210399013B013AFEF76BBA6B6800
:1047B000D4F81C210399013B013AFEF763BA019D2D
:1047C000D9F81C216B6803994C46013B013AFEF76E
:1047D00059BAEA680F4620463146D4F82861FEF7F8
:1047E00057F9D4F828319E4200F054846B68D4F80D
:1047F0001C210399013B013AFEF744BAD8F808801E
:10480000B8F1000F00F0C685042F02F110027EF40B
:1048100008AD0122C4E94532FEF775BDAB681A4602
:10482000BAF1000F7EF4B8AD6B68D4F81C2103997F
:10483000013B013AFEF726BA2B782F2B00D0A94670
:10484000D4F814E1FEF75FBAAE68D6E9026000283A
:104850003EF418AA3044D4F8001100F1FF39013EAB
:104860004FF0000809E00B460131B145C4F80011D2
:10487000E75484F8047100F07981FF2916F8017F6C
:10488000F1D1D4E9423284F8FF8020469847D4F829
:1048900028310133C4F8283101210023E5E7D5E9A7
:1048A000026006EB00084645BEF4ECA94FF0000993
:1048B00009E04B1CC4F80031675484F804710136D8
:1048C000B04540F24B81A8EB0603032B377801DD9E
:1048D0005F2F11D0D4F80011FF29EAD1D4E9423278
:1048E00084F8FF9020469847D4F828310133C4F863
:1048F000283100210123DDE773785F2BEAD1B378FB
:10490000552BE7D1F31C9845E4D9002005E0174664
:10491000984507EB001001F012809A4613F8017BCE
:10492000A7F130025FFA82FCBCF1090FA7F1410147
:10493000EDD90529A7F1610200F2A384373FE7E72B
:10494000C94FD4F8001107F1050A7B264FF0000982
:104950000AE00B460131BA45C4F80011E65484F868
:10496000046111D017F8016FFF29F2D1D4E9423266
:1049700084F8FF9020469847D4F828310133C4F8D2
:10498000283101210023E6E7B849424606A84CF049
:10499000AFFB06A802F0DEFA10B306AED4F80011A1
:1049A00006EB00094FF0000808E00B460131B14565
:1049B000C4F80011E75484F8047111D0FF2916F8E7
:1049C000017BF2D1D4E9423284F8FF802046984737
:1049D000D4F828310133C4F8283101210023E6E757
:1049E000D4F80031FF2B0FD10026194684F8FF6060
:1049F000D4E9423220469847D4F82831C4F80061FF
:104A00005A1CC4F828213346591C7D22C4F80011D1
:104A1000E25484F804216B68D4F81C210399013B0B
:104A2000013AFEF72FB96B68D4F81C210399013BBA
:104A3000013AFEF727B905F108012046FBF708FF08
:104A40000246002800F0B88403782F2B00F0A984D8
:104A5000D4F810713B68C4F8103131462046FEF797
:104A600017F86B68D4F81C210399C4F81071013B46
:104A7000013AFEF707B96B68D4F81C210399013B92
:104A8000013AFEF7FFB87A4E5F2706F105094FF0AD
:104A900000080AE00B460131B145C4F80011E754A3
:104AA00084F8047111D016F8017FFF29F2D1D4E9FE
:104AB000423284F8FF8020469847D4F828310133E9
:104AC000C4F8283101210023E6E76B68D4F81C21E3
:104AD0000399013B013AFEF7D5B8AA686349013250
:104AE00006A84CF005FB06A802F034FA10B306AE97
:104AF000D4F8001106EB00094FF0000808E00B465F
:104B00000131B145C4F80011E75484F8047111D0A3
:104B1000FF2916F8017BF2D1D4E9423284F8FF80F4
:104B200020469847D4F828310133C4F828310121B0
:104B30000023E6E76B68D4F81C210399013B013A96
:104B4000FEF7A0B8D4F80011FEF7D2BA6B68D4F81B
:104B50001C210399013B013AFEF794B86B68D4F825
:104B60001C210399013B013AFEF78CB86B68D4F81D
:104B70001C210399013B013AFEF784B86B68D4F815
:104B80001C210399013B013AFEF77CB826F0600135
:104B900005F10C02D4F814310091204601F0B4FA6A
:104BA000AA680099002A00F0CA852046FDF770FF28
:104BB0006B68D4F81C210399013B013AFEF762B8F7
:104BC000926831462046FDF763FFD4F8483113B1AF
:104BD000069BC4F8103194F804313C2B00F00F858B
:104BE000D4F80031FF2B0FD10027194684F8FF704D
:104BF000D4E9423220469847D4F82831C4F80071ED
:104C00005A1CC4F828213B46591C3C22C4F8001108
:104C1000E25484F80421AB683146DA682046FDF797
:104C200037FF94F804313E2B00F0CC84D4F80031E7
:104C3000FF2B0FD10026194684F8FF60D4E94232D9
:104C400020469847D4F82831C4F800615A1CC4F8AB
:104C5000282133463E22591CC4F80011E25484F83E
:104C60000421FFF7F1BA00BF9C1B0A087C190A084F
:104C7000101B0A08EC190A0893681F7C062F00F223
:104C8000BF81002F3EF48BA8EB6893F80080B8F149
:104C9000000F7EF484A8BCF13E0F00F0F486EA68B1
:104CA00031462046023FFDF7F3FE042F00F2148741
:104CB000DFE817F0C606A306960689067C0631468D
:104CC0002A46204600F01AFFFEF7FDB800221946DA
:104CD00084F8FF202046D4E942329847D4F828319E
:104CE00001210B442922C4F82831C4F80011227094
:104CF00084F804212B783E2B7EF47FA8D4F8002181
:104D00002D23511CC4F80011A35484F80431FEF77C
:104D100074B8D4F80031FF2B0FD10026194684F85F
:104D2000FF60D4E9423220469847D4F82831C4F8CD
:104D300000615A1CC4F8282133462022591CC4F8AB
:104D40000011E25484F80421FEF77FBFD4F800314B
:104D5000FF2B10D14FF00009194684F8FF90D4E9D9
:104D6000423220469847D4F82831C4F800915A1CA2
:104D7000C4F828214B462022591CC4F80011E254E3
:104D800084F80421FEF73EBFD8F80830D249D3F8A2
:104D900000A0504602F0D4F83B7810B9032B00F085
:104DA0009E85392B00F08985CC49504602F0C8F821
:104DB0008146002800F036859AF80030732B2BD1FD
:104DC0009AF80130502B27D19AF8023023BB1E46A7
:104DD00003E0FF68002F00F0FA823B782F2B40F0B1
:104DE000F682BB68002B00F0F2821A784B2A18BFBB
:104DF0000136EED199682046FBF73AFD034648B1EB
:104E0000002304E082682AB1C068013310B102783F
:104E10002F2AF7D01E44DCE742463146204601F0F7
:104E20007DFC9AF80030672B13D19AF80130732B70
:104E30000FD19AF8023063B93A4631462046FDF761
:104E400027FE6B68D4F81C210399013B013AFDF75A
:104E500019BFA349504602F073F8804600287EF43B
:104E6000C1A9D4F80031FF2B0ED184F8FF001946F8
:104E70002046D4E942329847D4F82831C4F800815A
:104E80005A1CC4F828214346581C4FF0280CC4F87B
:104E900000013A4604F803C03146204684F804C1B4
:104EA000FDF7F6FDD4F80031FF2B0FD1002619468F
:104EB00084F8FF60D4E9423220469847D4F828317C
:104EC000C4F800615A1CC4F828213346591C292211
:104ED000C4F80011E25484F804216B68D4F81C2152
:104EE0000399013B013AFDF7CDBE7E4FD4F8001186
:104EF00007F102090AE00B460131B945C4F8001177
:104F000004F8038084F804813DF430AFFF2917F8DA
:104F1000018BF0D1D4E9423284F8FFA020469847B3
:104F2000D4F828310133C4F8283101210023E4E703
:104F30006D4FD4F8001107F105094FF0000A0AE09F
:104F40000B460131B945C4F8001104F8038084F818
:104F500004813EF4A8A8FF2917F8018BF0D1D4E909
:104F6000423284F8FFA020469847D4F82831013314
:104F7000C4F8283101210023E4E7D4F80031FF2BE5
:104F80000FD10027194684F8FF70D4E94232204639
:104F90009847D4F82831C4F800715A1CC4F8282165
:104FA0003B46591C5B22C4F80011E25484F80421EA
:104FB000EA6831462046FDF76BFDD4F80031FF2B3F
:104FC0000FD10026194684F8FF60D4E9423220460A
:104FD0009847D4F82831C4F800615A1CC4F8282135
:104FE0003346591C5D22C4F80011E25484F80421B0
:104FF0006B68D4F81C210399013B013AFDF742BECE
:10500000072F7DF4CCAEEB68197800297DF4C7AE8C
:10501000D96801297DF4C3AEBCF13D0F7DF4BFAE6C
:105020009B681B78302B00F04A85312B7DF4B7AE9E
:105030002E4904222046FBF7A9F96B68D4F81C21FD
:105040000399013B013AFDF71DBE012A3EF623A953
:10505000042FACF1100B0CF1100A00F09D819BE8BD
:105060000F008CE80F0000234AF81C8C4AF8183C0B
:10507000D8F80880C4F814C14AE905EB0137D446D2
:10508000FEF7F2B86B68D4F81C210399013B013A92
:10509000FDF7F8BDD4F80031BB427FF4A7AB6B68D5
:1050A000D4F81C210399023FC4F80071013B013A76
:1050B000FDF7E8BDAA6831462046FDF7E9FC6B68BC
:1050C000D4F81C210399013B013AFDF7DBBD0F46E3
:1050D000A946FDF718BE00BF341B0A08381B0A0892
:1050E000601E0A0868190A08001B0A086C1B0A08D7
:1050F00026F06006FDF725BF0123C4F81831FDF73F
:10510000C6BF06ABD4F81471C4F81431CDE907500A
:10511000D4F810310697314620460993FDF7B8FCC4
:10512000089F069BC4F81431002F40F0EA83D4F89E
:105130000031FF2B0ED1194684F8FF70D4E94232BA
:1051400020469847D4F82831C4F800715A1CC4F896
:1051500028213B462022591CC4F80011E25484F84F
:105160000421FDF7EEBED24FD4F8001107F10D0A6D
:105170004FF0000B09E00B460131BA45C4F80011AD
:1051800004F8039084F8049111D0FF2917F8019BCB
:10519000F1D1D4E9423284F8FFB020469847D4F8E0
:1051A00028310133C4F8283101210023E5E7D8F87C
:1051B0000C20C049013206A84BF09AFF06A801F066
:1051C000C9FE18B306AFD4F8001107EB00094FF081
:1051D000000B09E00B460131B945C4F8001104F891
:1051E00003A084F804A111D0FF2917F801ABF1D175
:1051F000D4E9423284F8FFB020469847D4F82831E9
:105200000133C4F8283101210023E5E7AA4FD4F87F
:10521000001107F1030A4FF0000B09E00B460131C2
:10522000BA45C4F8001104F8039084F8049111D031
:10523000FF2917F8019BF1D1D4E9423284F8FFB07D
:1052400020469847D4F828310133C4F82831012189
:105250000023E5E7D8F80880FDF78FBDFF297FF42C
:105260004DAD4FF00008D4E9423284F8FF8020466B
:105270009847D4F82831C4F800810133C4F82831A4
:105280003CE5052A00F26583573FFFF741BBD4E9AF
:105290004CC7002F40F3D181E646924604E09F427E
:1052A0000EF1080E00F0C8815CF83320914503F13F
:1052B0000103F4D1034603E05B68002B00F0938206
:1052C0001A68914503D09542F6D18342F4D009F192
:1052D00008012046FBF7BCFA8146A0B1002799F8E7
:1052E00000302F2B7DF411AED4F824110029FFF6E5
:1052F000A3AA4846FBF79AFA814600287DF405AE3A
:105300000FB1C4F810810123C4F818316B68D4F8C8
:105310001C210399013B013AFDF7B4BCAA6805F1D1
:105320000C033146204601F085FA0746002840F07C
:105330004A82D5E902A2DAF80810D36808685F4902
:10534000D2F808B0D3E9029801F0FAFD002840F045
:10535000FE815A463146204601F01CFA524631463B
:10536000204601F0DBF94A463146204601F012FAA8
:10537000534903222046FBF709F8424631462046AE
:1053800001F008FA6B68D4F81C210399013B013A3B
:10539000FDF778BCC4F814210123C4F81831FDF7D7
:1053A000B2BFD4F824110029FFF652ABFBF73EFA46
:1053B000024600287FF44CAB0123C4F818316B6817
:1053C000D4F81C210399013B013AFDF75BBC394934
:1053D000324606A84BF08CFE06A801F0BBFD08B3D0
:1053E00006AED4F8001137184FF0000909E00B465B
:1053F000591CB742C4F8001104F8038084F80481F2
:1054000010D0FF2916F8018BF1D1D4E9423284F88B
:10541000FF9020469847D4F828310133C4F828314A
:105420000023E5E76B68D4F81C210399013B013A9E
:10543000FDF728BC6B68D4F81C210399013B013AA5
:10544000FDF720BC1B78A3F16301012903D9723B4E
:10545000012B3DF6A5AB3146204601F05FF9D4F8AB
:105460000031FF2B0FD10027194684F8FF70D4E9D3
:10547000423220469847D4F82831C4F800715A1CAB
:10548000C4F828213B46591C3C22C4F80011E254C0
:1054900084F80421EB680B4F9A6831462046FDF7EB
:1054A000F7FA07F10209D4F800114FF0000A15E0ED
:1054B0006C190A087C190A0880190A08481B0A088E
:1054C0004C1B0A083C1B0A080B46591CB945C4F87A
:1054D000001104F8038084F8048110D0FF2917F824
:1054E000018BF1D1D4E9423284F8FFA020469847DD
:1054F000D4F828310133C4F828310023E5E7EB68FC
:105500003146DA682046FDF7C3FAD4F80031FF2BA4
:105510000FD10026194684F8FF60D4E942322046B4
:105520009847D4F82831C4F800615A1CC4F82821DF
:105530003346591C2922C4F80011E25484F804218E
:105540006B68D4F81C210399013B013AFDF79ABB23
:10555000D9F80820FDF79FBBB549404601F0F0FCA3
:10556000002840F0C881EB683146DA68204601F037
:1055700011F9FDF77CBB9A68916801297DF41FAB96
:10558000526812783E2A7DF41AABD4F80031FF2B12
:105590000ED184F8FF0019462046D4E942329847DC
:1055A000D4F82831C4F800715A1CC4F828213B46AD
:1055B000591C2822C4F80011E25484F80421AB6875
:1055C000FDF7FDBAD4F80031FF2B0FD100261946A4
:1055D00084F8FF60D4E9423220469847D4F8283155
:1055E000C4F800615A1CC4F8282133462022591CF3
:1055F000C4F80011E25484F80421FFF717BBD4F873
:105600000031FF2B0FD10027194684F8FF70D4E931
:10561000423220469847D4F82831C4F800715A1C09
:10562000C4F828213B462022591CC4F80011E2543A
:1056300084F80421FFF7D4BA5246D4F838319F4297
:1056400080F2AA817B1C0CEBC70EC4F834314CF8F5
:105650003790D4F810710EF1040E002F00F0A381E2
:10566000D4E95003984200F1010C80F29581D4F8FE
:105670003C31C4F840C103EBC00378685860CEF8F1
:1056800000303F689E46E8E7AA683146204601F0B0
:1056900081F8684903222046FAF778FE6B68D4F84F
:1056A0001C210399013B013AFDF7ECBA6249D9F894
:1056B00008004BF03DFD00287EF49AAAEA683146C6
:1056C0002046FDF7E5F95D4902222046FAF75EFE25
:1056D000FEF7D3BA9B689A68012A7DF4CDAA5B686D
:1056E0001B783E2B7DF4C8AAD4F80031FF2B0FD1D4
:1056F0000026194684F8FF60D4E9423220469847D4
:10570000D4F82831C4F800615A1CC4F82821334663
:10571000591C2922C4F80011E25484F804216B6852
:10572000D4F81C210399013B013AFDF7ABBA6B6831
:10573000D4F81C210399013B013AFDF7A3BA6B6829
:10574000D4F81C210399013B013AFDF79BBA3C496F
:1057500004222046FAF71AFEDBF80830F3B15A4665
:105760003146204601F016F8D4F80031FF2B0ED157
:10577000194684F8FF70D4E9423220469847D4F89D
:105780002831C4F800715A1CC4F828213B46202255
:10579000591CC4F80011E25484F804214A463146E9
:1057A0002046FDF775F9B8F1000F14D04246314696
:1057B000204600F0EFFF6B68D4F81C210399013BF1
:1057C000013AFDF75FBA6B68D4F81C210399013BDD
:1057D000013AFDF757BA6B68D4F81C210399013BD5
:1057E000013AFDF74FBADEF80430D4F81081C4F85E
:1057F000103109F108012046FBF72AF881460028FC
:105800003FF47FAD01276AE5D3681B78292B1CBFC5
:105810000123C4F8183192683146204600F0BAFFDF
:10582000FDF7DEB939462046FBF722F880B912E0D1
:10583000401B0A08901B0A0884190A088C190A08D8
:10584000501B0A08836833B1C06809F1010910B11F
:1058500003782F2BF6D0A4494A4606A84BF048FC03
:1058600006A801F077FB00B306AE37184FF000082A
:10587000D4F8001116F8019BFF290DD1D4E942326A
:1058800084F8FF8020469847D4F82831C4F8008176
:105890000133C4F8283100214B1CB742C4F8003151
:1058A00004F8019084F80491E2D16B68D4F81C21CB
:1058B0000399013B013AFDF7E5B9BA683146204644
:1058C00000F068FF42463146204600F027FF6B6833
:1058D000D4F81C210399013B013AFDF7D3B9BB6809
:1058E0001A78012A7FF460AAFA681278292A08BF78
:1058F0001F46FFF759BA3A463146204600F00EFFE0
:1059000031E66B68D4F81C210399013B013AFDF79D
:10591000B9B9D8F80880B8F1000F3FF43DADFDF7F4
:10592000A1BCEA6831462046FDF7B2F8089B009A10
:10593000C4F81421002B3DF4A2ABFDF7A8BB5F27F0
:10594000FEF7C8BF42463146204600F0E7FEFDF7AD
:1059500049BCD045F3D95F2FF1D1FF283EF6BAAF4D
:10596000D4F80011FF29C7B20DD1D4E9423284F82E
:10597000FF9020469847D4F82831C4F800910133AD
:10598000C4F8283100214B1CC4F800315646675436
:1059900084F80471FEF793BF0123C4F818316B68D3
:1059A000013BFDF76FB9CEF8007090E44F49032238
:1059B0002046FAF7EBFC6B68D4F81C210399013BF5
:1059C000013AFDF75FB94A4902222046FAF7DEFCA8
:1059D0006B68D4F81C210399013B013AFDF752B9D9
:1059E000444902222046FAF7D1FC6B68D4F81C2106
:1059F0000399013B013AFDF745B9D4F80031FF2B7B
:105A00000FD10026194684F8FF60D4E942322046BF
:105A10009847D4F82831C4F800615A1CC4F82821EA
:105A20003346591C6C22C4F80011E25484F8042156
:105A30006B68D4F81C210399013B013AFDF722B9A8
:105A4000D4F80031FF2B0FD10026194684F8FF60EF
:105A5000D4E9423220469847D4F82831C4F800618E
:105A60005A1CC4F828213346591C7522C4F8001169
:105A7000E25484F804216B68D4F81C210399013B9B
:105A8000013AFDF7FFB8D4F80031FF2B0ED11946CB
:105A900084F8FF80D4E9423220469847D4F8283170
:105AA000C4F800815A1CC4F8282143462D22591CF1
:105AB000C4F80011E25484F80421FFF7F0B80E494D
:105AC00005222046FAF762FC6B68D4F81C21039982
:105AD000013B013AFDF7D6B86B68D4F81C21039955
